:020000040800F2
:1000000088040020F9130008450100084701000892
:100010004B0100084F0100085301000800000000D8
:100020000000000000000000000000005701000870
:1000300059010008000000005B0100085D01000894
:1000400013140008131400081314000813140008F4
:1000500013140008131400081314000813140008E4
:1000600013140008131400081314000813140008D4
:1000700013140008131400081314000813140008C4
:1000800013140008131400081314000813140008B4
:1000900013140008131400081314000813140008A4
:1000A0001314000813140008131400081314000894
:1000B0001314000813140008131400081314000884
:1000C0001314000813140008131400081314000874
:1000D0001314000813140008131400081314000864
:1000E0001314000813140008131400081314000854
:1000F0001314000813140008131400081314000844
:100100001314000813140008131400081314000833
:100110001314000813140008131400081314000823
:100120001314000813140008131400081314000813
:10013000DFF80CD002F0A2F9004800477B0100086C
:1001400088040020704700BFFEE700BFFEE700BF45
:10015000FEE700BFFEE7704770477047704700003A
:100160004FF4FA6106E000E0491E0029FCD14FF48B
:10017000FA61401E0028F6D1704788B000F0E0FB1D
:10018000002000F074FC01F0C1FA01F06DFA01F0FA
:10019000D2FB802067490870002088700120C87059
:1001A000084601F073FC0021634801F07FFCBFE0CA
:1001B00001F0D4FC614908700846007810F0FC0F8B
:1001C0007DD14FF47A70FFF7CBFF2020594948705A
:1001D000084601F05BFC00BF01F0C0FB0128FBD02A
:1001E000574801F0F5FC5648407810F0010F1AD03E
:1001F00001F0B4FC5149087052A001F055FA53A027
:1002000001F052FA4D48007800F0FC0256A1574820
:1002100002F056F9554801F047FA55A001F044FAAA
:1002200001F0C8FC84E0464840784549097840EA36
:10023000012040104F49088009884FF4C87201FB23
:1002400002F001F030FF064600224B4B01F0BCFEED
:10025000044601F065FF49490860084601684848BE
:1002600001F01DFD064601F048FF0446454A464B95
:1002700001F038FE00224FF08043CDE900014348F1
:10028000434902F00FFE04460D4600224FF0804322
:100290001046404902F006FE064622462B4601F073
:1002A00021FE8046DDE9002301F016FECDE90201C2
:1002B00003F0E8FA384A394BCDE9040100E024E0C4
:1002C00001F069FD82462F4A354B01F07DFECDE9F4
:1002D000060101F025FF334908600846006801F077
:1002E0000CFF044622460B462FA1204802F0E8F8F6
:1002F00014A001F0D9F92EA001F0D6F91B4801F0A5
:10030000D3F931A001F0D0F912E031A001F0CCF91D
:100310000A48007800F0FC0213A1144802F0D0F85B
:10032000124801F0C1F912A001F0BEF901F042FC3F
:100330003EE70000100000200000C843000000203D
:10034000010000201B5B324A000000004D41583381
:1003500031383635204572726F7220436F64653ACA
:1003600020202020202000002578000044000020CC
:100370000D0A0000040000200000E0400C000020F6
:100380000000C842B45208E412472EBF1C64ED4A74
:100390002602703F000059406CEC12D55B03D9BFB8
:1003A00012471EBF08000020252E32660000000004
:1003B00043757272656E742054656D7065726174F8
:1003C0007572653A2020200020A1E60D0A00000089
:1003D0004D41583331383635204572726F722043A3
:1003E0006F64653A2020202020202020200000007B
:1003F00031490143314A1160704770B50021002333
:100400000F22C4780CB32D4C246804F4E064C4F5C6
:10041000E064210AC1F10403CA40447804FA03F1FC
:100420008478144021430901254C0678A1550478AD
:1004300004F01F050124AC4005786D114FF0E02653
:1004400006EB8505C5F8004109E0047804F01F05B6
:100450000124AC401B4D0678761145F8264070BD4E
:10046000194A0A400243154B1B1F1A60704739B1E5
:10047000124A121D12680243104B1B1D1A6006E03F
:100480000E4A121D126882430C4B1B1D1A607047E6
:10049000042808D14FF0E021096941F004014FF030
:1004A000E022116107E04FF0E021096921F0040129
:1004B0004FF0E022116170470000FA050CED00E0FA
:1004C00000E400E080E100E080FFFF1F00204449DD
:1004D0000860091D0860091D0860091D0860414881
:1004E0003F4914310860704700213D498279002A54
:1004F0003AD00A46126803689A430B461A600A1DEE
:10050000126803689A430B1D1A60027911440A6845
:1005100003681A430A60324A0832126803689A4331
:100520002F4B08331A601A1D126803689A432C4B2C
:100530000C331A604279102A0ED11A1F1268036810
:100540001A43274B08331A601A1D126803681A43AE
:10055000234B0C331A600DE02149427911440A689B
:1005600003681A430A6005E0027911440A680368C7
:100570009A430A6070470021016001710C214171AA
:100580000021817170471649103109680143144AEE
:1005900010321160704701460020114A143212686F
:1005A0000A4201D0012000E0002070470C491431BC
:1005B00008607047014600200022094B1B6803EACF
:1005C0000102074B14331B680B4202D00AB1012011
:1005D00000E00020704702491431086070470000B5
:1005E00000040140FFFF0F0010B50446CA488442D2
:1005F00008D10121042000F027FB0021042000F095
:1006000023FB46E0C548844208D10121082000F0C0
:100610001BFB0021082000F017FB3AE0C048844291
:1006200008D10121102000F00FFB0021102000F064
:100630000BFB2EE0BB48844208D10121202000F0B2
:1006400003FB0021202000F0FFFA22E0B64884429C
:1006500008D10121402000F0F7FA0021402000F0ED
:10066000F3FA16E0B148844208D10121802000F05D
:10067000EBFA0021802000F0E7FA0AE0AC4884425F
:1006800007D10121801500F0DFFA0021A01500F04C
:10069000DBFA10BD10B50121084600F0D5FA0021A3
:1006A000012000F0D1FA10BD2DE9F04102460025ED
:1006B0000026002000230024002791F803C00CF03E
:1006C0000F0591F803C01CF0100F03D091F802C081
:1006D0004CEA050591F800C0BCF1000F31D0146858
:1006E00000202BE04FF0010C0CFA00F3B1F800C031
:1006F0000CEA03069E4220D183004FF00F0C0CFA47
:1007000003F7BC4305FA03FC4CEA040491F803C068
:10071000BCF1280F06D14FF0010C0CFA00FCC2F816
:1007200014C00AE091F803C0BCF1480F05D14FF0A6
:10073000010C0CFA00FCC2F810C0401C0828D1D3F0
:100740001460B1F800C0BCF1FF0F34DD5468002024
:100750002EE000F1080C4FF0010808FA0CF3B1F894
:1007600000C00CEA03069E4221D183004FF00F0C1B
:100770000CFA03F7BC4305FA03FC4CEA040491F8B5
:1007800003C0BCF1280F05D100F1080C08FA0CF8E1
:10079000C2F8148091F803C0BCF1480F07D100F1F2
:1007A000080C4FF0010808FA0CF8C2F81080401C41
:1007B0000828CED35460BDE8F0814FF6FF71018068
:1007C000022181700421C1707047024600209368A5
:1007D0000B4201D0012000E00020704701468868EC
:1007E00080B2704702460020D3680B4201D001203E
:1007F00000E0002070470146C86880B27047016180
:100800007047416170470AB1016100E04161704782
:10081000C16070474FF480320A4382618161826116
:1008200082698269704702460020424B18684FF681
:100830008073184040EA021008433E4B186070472E
:100840003D49C8617047F0B50A46002300240021E5
:10085000002500F00046B6F1004F02D1354EF16997
:1008600001E0344E7168C0F3034583B200F44016D2
:10087000B6F5401F08D121F070612E4E766826F043
:1008800070662C4F7E6012E000F48016B6F5801F73
:1008900006D1032606FA05F4A14341F0706106E093
:1008A000460D360103FA06F6B14341F0706122B1FC
:1008B000460D360103FA06F6314300F00046B6F164
:1008C000004F02D11B4EF16101E01A4E7160F0BD84
:1008D00030B500228B071C0F0F2303FA04F2154BCF
:1008E00008338C1053F824309343124C08348D1085
:1008F00044F8253023468C1053F824308C07240FFD
:1009000000FA04F423430B4C08348D1044F82530CE
:1009100030BD0A490860704700080140000C0140E2
:10092000001001400014014000180140001C01406B
:10093000002001400000014000002042DC00204275
:10094000DD48006840F00100DB4908600846406867
:10095000DA490840D849486008460068D849084044
:10096000D54908600846006820F4802008600846E1
:10097000406820F4FE0048604FF41F008860704714
:10098000CD49096821F48031CB4A116011460968CC
:1009900021F480211160B0F5803F03D0B0F5802FA5
:1009A0000ED106E0C449096841F48031C24A1160A1
:1009B00007E0C149096841F4A021BF4A116000E085
:1009C00000BF00BF704710B5014600220023002081
:1009D0004A11012A02D1B84C236806E0022A02D14A
:1009E000B54C236A01E0B44C636A01F01F02012494
:1009F00094401C4201D0012000E0002010BD38B519
:100A0000002000900024002500BF3120FFF7DBFF0D
:100A100005460098401C00900098B0F5A06F01D0EA
:100A2000002DF2D03120FFF7CEFF08B1012400E005
:100A30000024204638BD014600209F4A106820F05F
:100A4000F80040EAC100106070479E490860704796
:100A500002460020984B586820F47C1042EA0103BB
:100A60001843954B58607047964908667047014691
:100A70000020914A506820F00300084350607047FE
:100A80008D48406800F00C007047014600208A4AFB
:100A9000506820F0F0000843506070470146002085
:100AA000854A506820F4E060084350607047014672
:100AB0000020814A506820F4605040EAC100506034
:100AC000704729B17C4A527A02437B4B5A7204E048
:100AD000794A527A8243784B5A7270477A49086051
:100AE000704701460020744A506820F44040084393
:100AF000506070470021754A11706F4A82F82010CB
:100B0000012802D0042808D103E001216F4A1170A6
:100B100004E005216D4A117000E000BF00BF70477E
:100B20006B49086070476449096A0143624A11626F
:100B30007047674944390860704730B5002100228A
:100B4000002400235C4D6D6805F00C0121B10429DF
:100B500005D0082923D105E05E4D056022E05D4DFA
:100B600005601FE0544D6D6805F47012524D6D68BC
:100B700005F48034022505EB92421CB9564D5543CD
:100B800005600BE04C4D6D6815F4003F03D0524DED
:100B90005543056002E04F4D5543056002E04D4D61
:100BA000056000BF00BF444D6D6805F0F001090904
:100BB0004A4D6B5C0568DD4045603F4D6D6805F44E
:100BC000E061090A454D6B5C4568DD4085603A4D42
:100BD0006D6805F46051C90A404D6B5C4568DD40A5
:100BE000C560354D6D6805F44041890B3C4D6B5C2B
:100BF000C568B5FBF3F5056130BD29B12E4A5269D0
:100C000002432D4B5A6104E02B4A526982432A4B1E
:100C10005A61704729B1284A92690243264B9A616A
:100C200004E0254A92698243234B9A61704729B1B7
:100C3000214AD2690243204BDA6104E01E4AD2699C
:100C400082431D4BDA61704729B11B4AD2680243C7
:100C5000194BDA6004E0184AD2688243164BDA6016
:100C6000704729B1144A12690243134B1A6104E018
:100C7000114A12698243104B1A6170471449403976
:100C8000086070470F49C86470470B49C8717047C6
:100C90000948406A40F08070074948627047014641
:100CA0000020054A92680A4201D0012000E000209D
:100CB0007047014988727047001002400000FFF839
:100CC000FFFFF6FE00004242D800424220100240E0
:100CD0008004424200127A0000093D001400002006
:100CE0002400002010B50446BE48844208D10121EA
:100CF0008014FFF7A9FF0021A014FFF7A5FF16E05D
:100D0000B948844208D101210014FFF7AAFF00214D
:100D10002014FFF7A6FF0AE0B448844207D101215E
:100D2000C013FFF79EFF0021E013FFF79AFF10BDED
:100D300010B50022028802F441520B884C882343EC
:100D40008C882343CC8823430C8923434C89234339
:100D50008C892343CC8923431A430280838B4FF22F
:100D6000FF74234083830B8A038210BD2DE9F04F6B
:100D700085B005460C464FF0000902274FF00008E9
:100D80004FF0010B0026B246A88B4FF240010840FD
:100D9000A88302202884B5F81C90A068022801D1FD
:100DA00000BF38E0A08810B94FF0010B01E04FF010
:100DB000020B8D48854200D100E000BF6846FFF776
:100DC000BCFEDDF800A0E088B0F5007F0AD14FEA54
:100DD0001A2000EB80004000A168B0FBF1F0401D3C
:100DE00086B20BE04FEA4B10BAFBF0F000EB80004C
:100DF0004000A168B0FBF1F0401D86B20A20B6FBAE
:100E0000F0F606F00108A6EB0800C0F34F074FF616
:100E1000FF7000EA0828022F01DBFF2F02DD022706
:100E20004FF00008E08840EA080038432884A08892
:100E3000A1890843618808432188084340F4006081
:100E400040EA0909A5F81C9005B0BDE8F08F002123
:100E5000018041808180C180018141818181C18186
:100E60000721018270470021018041808180C1807B
:100E70000221816000218181704721B1028842F006
:100E80004002028004E002884FF6BF731A400280DD
:100E9000704721B1828B42F48062828304E0828BAE
:100EA0004FF6FF331A408283704730B50024002389
:100EB0000C110125A540ABB21AB185881D43858070
:100EC00002E085889D43858030BD1AB183880B433D
:100ED000838002E083888B438380704781817047E1
:100EE000014688897047A1F57E42FF3A04D0028806
:100EF00042F48072028004E002884FF6FF631A40D9
:100F00000280704721B1828842F00402828004E0AE
:100F100082884FF6FB731A408280704702884FF236
:100F2000FF731A40028002880A43028070470188DA
:100F300041F480510180704721B1028842F400528F
:100F4000028004E002884DF6FF731A400280704769
:100F500002460020012901D0108B00E0908A7047E2
:100F60000146088A7047B1F5804F04D1028842F4E7
:100F70008042028004E002884BF6FF731A40028030
:100F800070470246002013890B4201D0012000E087
:100F900000207047CA4302817047F0B50246002026
:100FA00000240023002501F00F070126BE40B4B243
:100FB0000B1101269E40B3B2968806EA03051689F6
:100FC000264202D00DB1012000E00020F0BD10B596
:100FD000002201F00F040123A3409AB2D3430381FE
:100FE00010BD00000030014000380040003C0040CF
:100FF00010B50446FB48844209D101218803FFF75C
:1010000023FE00214FF48040FFF71EFE32E0F64839
:10101000844209D101214804FFF723FE00214FF447
:101020000030FFF71EFE25E0F048844209D101217F
:101030008804FFF716FE00214FF48020FFF711FE11
:1010400018E0EB48844209D10121C804FFF709FEEA
:1010500000214FF40020FFF704FE0BE0E548844236
:1010600008D101210805FFF7FCFD00214FF4801095
:10107000FFF7F7FD10BD2DE9F04786B005460E4697
:101080000024A24600BFA1460027B08900B100BFDE
:101090002F462C8A4CF6FF700440F08804432C82C3
:1010A000AC894EF6F3100440B08831890843718949
:1010B00008430443AC81AC8A4FF6FF400440B0893A
:1010C0000443AC8201A8FFF738FDC648874202D12D
:1010D000DDF810A001E0DDF80CA0A88910F4004FA5
:1010E00008D00AEBCA0000EB0A1031684900B0FBD7
:1010F000F1F807E00AEBCA0000EB0A10316889003A
:10110000B0FBF1F86420B8FBF0F004012009642181
:1011100001FB1089A88910F4004F08D0322000EBA1
:10112000C900B0FBF1F000F00700044308E03220F2
:1011300000EB09106421B0FBF1F000F00F00044354
:101140002C8106B0BDE8F0874FF4165101600021F4
:101150008180C18001810C21418100218181704702
:1011600010B502460020108A4FF2FF0318400B888A
:101170004C8823438C882343CC8823431843108214
:1011800010BD0021018041808180C180704721B164
:10119000828942F40052828104E082894DF6FF7315
:1011A0001A4082817047F0B50346002400260025CE
:1011B0000020A1F510676A3F00D100BF1846C1F3B7
:1011C000421401F01F06012707FA06F5012C01D190
:1011D0000C3004E0022C01D1103000E014301AB1C0
:1011E00007682F43076002E00768AF430760F0BD60
:1011F0001AB1838A0B43838202E0838A8B43838202
:101200007047028A4FF6F0731A400282028A0A433C
:101210000282704782894FF2FF731A40828182896D
:101220000A438281704721B1828942F002028281A1
:1012300004E082894FF6FD731A4082817047028A6A
:101240004FF6DF731A400282028A0A430282704715
:1012500021B1028A42F48042028204E0028A4BF603
:10126000FF731A4002827047C1F308028280704700
:1012700001468888C0F308007047818941F0010168
:1012800081817047028BD2B20283028B42EA012233
:1012900002837047028B02F47F420283028B0A436F
:1012A0000283704721B1828A42F02002828204E0E8
:1012B000828A4FF6DF731A408282704721B1828A98
:1012C00042F01002828204E0828A4FF6EF731A40E5
:1012D0008282704721B1828A42F00802828204E051
:1012E000828A4FF6F7731A408282704721B1828951
:1012F00042F40042828103E08289C2F30E028281BD
:10130000704721B1828A42F40062828204E0828ABC
:101310004FF2FF731A4082827047828A4FF6FB7346
:101320001A408282828A0A438282704721B1828A6D
:1013300042F00202828204E0828A4FF6FD731A4074
:101340008282704702460020B1F5007F00D100BFC5
:1013500013880B4201D0012000E00020704701F407
:101360000072B2F5007F00D100BFCA43028070470F
:1013700070B502460024002300250020A1F5106668
:101380006A3E00D100BFC1F3421501F01F030126E0
:1013900006FA03F3012D02D19689334006E0022DAF
:1013A00002D1168A334001E0968A33400C1201269E
:1013B00006FA04F41688344013B10CB1012000E0A1
:1013C000002070BD10B500220023A1F510646A3C16
:1013D00000D100BF0A1201249440A3B2DC43048070
:1013E00010BD0000003801400044004000480040AB
:1013F000004C004000500040064880470648004727
:10140000FEE7FEE7FEE7FEE7FEE7FEE7FEE7FEE7B4
:10141000FEE7FEE7F9140008310100080CB50020D2
:10142000019000906B48006840F480306949086082
:1014300000BF6848006800F4003000900198401C2C
:101440000190009818B90198B0F5A06FF1D16148EA
:10145000006810F4003F02D00120009001E000205D
:1014600000900098012842D15B48006840F01000CD
:10147000594908600846006820F0030008600846E3
:10148000006840F0020008605248406851494860D6
:101490000846406848600846406840F480604860FC
:1014A0000846406820F47C1048600846406840F4D4
:1014B000E81048600846006840F08070086000BF8F
:1014C0004448006810F0007FFAD04248406820F09D
:1014D0000300404948600846406840F00200486008
:1014E00000BF3C48406800F00C000828F9D10CBD52
:1014F00010B5FFF793FF10BD10B53648006840F0F7
:1015000001003449086008464068344908403149C0
:10151000486008460068324908402E49086008467D
:10152000006820F4802008600846406820F4FE002F
:1015300048604FF41F008860FFF7DAFF4FF000604B
:101540002849086010BD10B5002100200022214B61
:101550005B6803F00C0121B1042906D0082928D1C9
:1015600007E0214B214C236027E01F4B1F4C2360D9
:1015700023E0184B5B6803F47010164B5B6803F4B0
:101580008032022303EB904022B9194B4343174C9E
:1015900023600DE00F4B5B6813F4003F04D0144B45
:1015A0004343124C236003E00F4B43430F4C236033
:1015B00003E00D4B0D4C236000BF00BF054B5B6883
:1015C000C3F303130B4CE15C084B1B68CB40074C87
:1015D000236010BD00100240002002400000FFF810
:1015E000FFFFF6FE08ED00E000127A002800002060
:1015F00000093D002C00002008B501210420FFF760
:1016000009FB4FF40070ADF8000003208DF80200D4
:1016100018208DF8030069463A48FFF745F84FF463
:101620008060ADF8000004208DF80300694635485D
:10163000FFF73AF808BD1FB54FF4E13000900020E5
:10164000ADF80400ADF80600ADF80800ADF80C00E8
:101650000C20ADF80A0069462B48FFF70CFD01216C
:101660002948FFF794FD1FBD10B5012144F2010088
:10167000FFF7D0FAFFF7C0FFFFF7DDFF10BD10B591
:10168000044600BF40212048FFF75CFE0028F9D047
:1016900021461D48FFF7E8FD00BF40211A48FFF72B
:1016A00051FE0028F9D010BD2DE9F0410446204636
:1016B00000F09CFA1FFA80F82646002506E03778ED
:1016C0003846FFF7DCFF761C681C85B24545F6DB23
:1016D000BDE8F08170B504462546E11704EB1171B1
:1016E00009113031C8B2FFF7CAFF2546E11704EBF4
:1016F00011710911A4EB01113031C8B2FFF7BFFF1E
:1017000070BD0000000801400038014000B587B0FE
:1017100001210420FFF77EFA01210820FFF77AFA61
:1017200001210803FFF776FAE020ADF8040003205A
:101730008DF8060018208DF8070001A9A848FEF7CB
:10174000B3FF4020ADF8040003208DF80600102000
:101750008DF8070001A9A348FEF7A6FF4021A14884
:10176000FFF74DF80020ADF808004FF48270ADF897
:101770000A000020ADF80C000220ADF80E00012098
:10178000ADF810004002ADF812001020ADF81400C2
:101790000020ADF816000720ADF81800012192488E
:1017A000FFF76BFB02A99048FFF7C2FA07B000BD34
:1017B00070B505460E4600242EE04FF420408B49BC
:1017C000086007E089490868411E884A116008B925
:1017D000012070BD02218448FFF7D3FB0028F1D01F
:1017E000295D8148FFF77AFB4FF420407F4908606C
:1017F00007E07E490868411E7C4A116008B9012053
:10180000E7E701217848FFF7BCFB0028F1D07648D4
:10181000FFF766FB601CC4B2B442CEDB0020D8E701
:1018200070B505460E467048FFF75AFB00242FE0BE
:101830004FF420406D49086007E06C490868411E7C
:101840006A4A116008B9012070BD02216648FFF79D
:1018500098FB0028F1D000216348FFF73FFB4FF4CD
:1018600020406249086007E060490868411E5F4AFD
:10187000116008B90120E7E701215B48FFF781FB10
:101880000028F1D05848FFF72BFB2855601CC4B244
:10189000B442CDDB0020D7E710B504464FF420401A
:1018A0005249086007E051490868411E4F4A1160DB
:1018B00008B9012010BD02214B48FFF762FB002848
:1018C000F1D021464848FFF709FB4FF42040474933
:1018D000086007E045490868411E444A116008B99C
:1018E0000120E7E701214048FFF74BFB0028F1D03A
:1018F0003D48FFF7F5FA3C48FFF7F2FA0020D9E738
:1019000010B53948FFF7ECFA00BF02213648FFF75F
:1019100038FB0028F9D0FF213348FFF7DFFA00BF7A
:1019200001213148FFF72DFB0028F9D02E48FFF7A1
:10193000D7FAC0B210BD08B501210820FFF76AF937
:101940002020ADF8000003208DF8020004208DF85F
:10195000030069462348FEF7A7FE08BD10B5202105
:101960002048FEF73FFF10BD1FB501211120FFF7F2
:1019700051F90120ADF8080048208DF80B00012036
:101980008DF80A0002A91A48FEF78EFE00210220F7
:10199000FEF79EFF0120009000208DF804000C202F
:1019A0008DF8050001208DF806006846FEF79CFDC5
:1019B0004FF4C060FEF71CFD06208DF80C000020DF
:1019C0008DF80D008DF80E0001208DF80F0003A892
:1019D000FEF713FD1FBD72B6704762B67047000078
:1019E00000080140000C0140003001403C00002094
:1019F0000010014070B505460C4640217848FEF7BE
:101A000000FF2846FFF748FF2046FFF745FF40212B
:101A10007348FEF7F4FE70BD70B506460C461546D9
:101A200040216F48FEF7EDFE3046FFF735FF2946AF
:101A30002046FFF7BDFE40216948FEF7E0FE70BD7D
:101A400070B5044640216648FEF7DBFE2046FFF7EE
:101A500023FFFFF755FF054640216148FEF7CFFE03
:101A6000284670BD70B506460C46154640215C48B8
:101A7000FEF7C7FE3046FFF70FFF29462046FFF767
:101A8000CFFE40215648FEF7BAFE70BD70B5044641
:101A90000025207861780843A1780843E17808435D
:101AA000054329468020FFF7A5FF70BD2DE9F843C7
:101AB00006460D464B49304600F02DF980464A490E
:101AC00000F0F3F8074600F0FFFA4FF6FF7101EA65
:101AD000400420128DF80000E0B28DF80100414969
:101AE000284600F018F980463F4900F0DEF8074626
:101AF00000F0EAFA4FF6FF7101EA400420128DF877
:101B00000200E0B28DF80300042269468320FFF74B
:101B100083FFBDE8F88370B50020FFF791FF04460E
:101B200044F0840421468020FFF764FF00BF0020BA
:101B3000FFF786FF10F0C00FF9D10720FFF780FFF5
:101B40000546284670BD022105E000E0491E002937
:101B5000FCD10221401E0028F7D1704770B500204B
:101B6000FFF76EFF044644F0800404F0F3042146BE
:101B70008020FFF73FFFC820FFF7E5FF44F088040F
:101B800021468020FFF736FFC820FFF7DCFF44F036
:101B90008C0421468020FFF72DFF00BF0020FFF7B7
:101BA0004FFF10F00C0FF9D10720FFF749FF054652
:101BB000284670BD10B50020FFF742FF044604F030
:101BC000D30444F0020421468020FFF713FF10BD28
:101BD00010B50446022221460120FFF743FF10BD45
:101BE000000C01400000C84300FC7F46421C10F876
:101BF000011B0029FBD1801A7047F0B480EA010272
:101C0000D40F4200B2EB410F02D202460846114601
:101C10004A0042D0C30DDDB2C1F3C752AD1A202D28
:101C200035DAC1F3160141F4000204B15242C5F1A4
:101C3000200602FA06F12A411044B3EBD05F23D00C
:101C4000C4B1012DA0EBC35009DCF0BC4FF0004241
:101C500002EAC35200F50000DBB200F0EEBA400029
:101C600000F1807000EBC350A0F1807040EAD170A9
:101C7000490009E0490841EAC071A0EBC35000F5F2
:101C80000000400800EBC350F0BC00F0CDBA614248
:101C9000012202EB4101001BF6E7F0BC704781F026
:101CA0000041AAE780F00040A7E780EA010210B5F2
:101CB00002F00043400026D04A0023D04FEA1061D2
:101CC00001EB1261C0F35600C2F3560240F400006B
:101CD00042F40002A0FB0220A1F17F014FEA004084
:101CE000140401D000F1010050EA124001D4400078
:101CF000491EC2B20C0604EBD010401C4008802ADA
:101D000002D003E0002010BD20F00100002900DA1D
:101D10000020184310BD30B480EA010202F00045F3
:101D200030F0004221F0004015D0A0B1C0F3C753FD
:101D3000C2F3C754C2F31601C0F31600E41A41F40B
:101D4000000140F400027D34914201D3641C00E0A4
:101D50004900002C02DA30BC002070474FF400002C
:101D60000023914201D3891A034340084FEA4101FD
:101D7000F7D151B1914202D14FF0004105E002D2BA
:101D80004FF0010101E06FF0010103EBC450284462
:101D900030BC00F049BA2DE9FE4F804681EA0300CD
:101DA000C00F0C46009021F0004123F00045B8EB35
:101DB0000200A94105D24046214690461C460B46EA
:101DC000024623F00040104304D14046214603B0B0
:101DD000BDE8F08F270DC7F30A00C3F30A51029044
:101DE000401A0190402866DAC3F3130040F4801BC8
:101DF0000098924620B10023D2EB030A63EB0B0B51
:101E000001985946C0F14002504600F0ECF90646F0
:101E10000D4650465946019A00F0F4F910EB0800BF
:101E20006141002487EA115284EAE7731A433BD0E8
:101E3000009A3AB3019A012A4FEA075210DC001BBC
:101E400061EB02014FF0004202EA0752CDE9004285
:101E5000001C41F5801132462B4600F028FAB6E707
:101E6000001B61EB0201001C41F5801300185B416F
:101E70002018A2F5001747EB030140EAD570B61908
:101E80006D4111E06D084FEA360645EAC0754FEA2C
:101E90000752001B61EB0201001C41F5801149084B
:101EA0004FEA30000019514132462B4603B0BDE8DD
:101EB000F04F00F0EFB90098012240000023D0EB72
:101EC000020263EBE073009821464FEAE074B8EB3E
:101ED000000061EB0401E9E783F000435BE781F078
:101EE000004158E72DE9FE4F81EA030404F0004465
:101EF00021F0004100944FF0000B23F0004350EA22
:101F0000010402D052EA030404D10020014603B0C8
:101F1000BDE8F08FC3F30A54C1F30A552C44A4F270
:101F2000F3340194A0FB0254C1F3130141F4801176
:101F3000C3F3130343F4801301FB024400FB034E7D
:101F4000840A970A44EA815447EA8357A4FB076846
:101F500002958D0A05FB07854FEA932C04FB0C5470
:101F60002705029D4FEA065847EA1637B5EB0805E4
:101F70006EEB070C870E920E47EA811742EA831236
:101F8000A7FB0201B6EB0B0164EB00042B0D43EA47
:101F90000C335E1844EB1C50DA465146E7FB020155
:101FA000C5F313044FEA0B3343EA14534FEA0432E8
:101FB000019C43EA0603A4F10C040294009CCDE9C1
:101FC00000B400F074F9A2E72DE9F04D81EA0304B2
:101FD00004F0004B21F0004514464FF0000A23F0B6
:101FE000004150EA050220D054EA01021DD0C5F399
:101FF0000A570246C5F31303C1F31300C1F30A568F
:1020000040F4801543F48013A7EB0608101BD64656
:1020100008F2FD3873EB050002D308F1010801E076
:1020200092185B41B8F1000F03DA00200146BDE8C9
:10203000F08D00204FF48011064684460EE0171BF9
:1020400073EB050705D3121B63EB050306434CEA4C
:10205000010C49084FEA300092185B4150EA010731
:10206000EDD152EA030012D082EA040083EA0501AE
:10207000084303D100224FF0004308E0101BAB419E
:1020800002D20122002302E06FF0010253101AEB8A
:1020900006004CEB085110EB0A0041EB0B01BDE8C8
:1020A000F04D00F0F7B80EB5C10F80EAE0700844BB
:1020B000CA07002140F233438DE80E000A460B4662
:1020C00000F0F5F803B000BD00F0004220F0004041
:1020D000C10DC0F3160040F400007F2901DA002092
:1020E0007047962903DCC1F19601C84001E096399A
:1020F0008840002AF4D04042704700F0004230F09F
:1021000000400AD0C10D01F56071C0F3160042EA2B
:102110000151C20840071143704700200146704733
:1021200001F0004330B421F0004150EA010206D032
:102130000A0DA2F56072C1F31301002A02DC30BC63
:1021400000207047440F44EAC104C100E01830BCCD
:1021500000EBC25000F068B830B50B4601460020D5
:102160002022012409E021FA02F59D4205D303FA59
:1021700002F5491B04FA02F52844151EA2F10102DA
:10218000F1DC30BD2DE9F05F0546002092469B460C
:1021900088460646814640241BE02846414647467D
:1021A000224600F07DF953465A46C01A914110D399
:1021B00011461846224600F016F82D1A67EB010862
:1021C0004F4622460120002100F00DF817EB0009D0
:1021D0004E41201EA4F10104DFDC484631462A4668
:1021E0004346BDE8F09F202A04DB203A00FA02F1C2
:1021F000002070479140C2F1200320FA03F31943F5
:1022000090407047202A06DBCB17203A41FA02F0B3
:1022100043EAE07306E041FA02F3D040C2F1200243
:1022200091400843194670470029A8BF7047401CD9
:10223000490008BF20F00100704710B4B0FA80FCDC
:1022400000FA0CF050EA010404BF10BC704749B119
:10225000CCF1200421FA04F411FA0CF118BF012189
:1022600021430843A3EB0C01CB1D0106000A002B00
:10227000BEBF002010BC704700EBC35010440029C3
:10228000A4BF10BC7047401C490008BF20F00100EB
:1022900010BC704710B5002B08DA401C41F100015A
:1022A00092185B411A4301D120F0010010BD2DE9C5
:1022B000F04D92469B4611B1B1FA81F202E0B0FABC
:1022C00080F220329046FFF78EFF04460F4640EA28
:1022D0000A0041EA0B0153465A46084303D12046FF
:1022E0003946BDE8F08D114653EA010015D0C8F11A
:1022F0004002504600F0D4F805460E465046594676
:102300004246FFF770FF084301D0012000E00020A3
:10231000054346EAE0762C4337430A984FEA445394
:10232000A0EB08004FEAD4240A304FF0000244EA40
:1023300047544FEAD72502D500200146D1E70105D1
:1023400010196941DDE9084500196941BDE8F04D02
:10235000A0E770B521F0004303430CD0C1F30A5548
:102360000024D5EB040564EB0403D617AD1AB34182
:1023700002DB0020014670BD201841EB025170BD08
:102380002DE9F04D00231A461B1A8A4103DB002079
:102390000146BDE8F08DC1F30A52C1F3130141F4C7
:1023A00080154FF0000BD10702D100186D41521E6D
:1023B0000027044640F2FF11384601EB620A3E4610
:1023C0008046024600204FF4801100F069F8C219DF
:1023D0007141BB1846EB0100B4EB030C75EB000C2C
:1023E00004D3E41A65EB000517460E46241908F1DC
:1023F00001006D4180463428E3DDF91946EB060003
:10240000091BA84103D24FF0FF32134601E000221E
:1024100013461BEB070046EB0A51BDE8F04DFFF7F2
:1024200039BFC1F30A52C1F3130140F2FF3341F443
:1024300080119A4202DA00200146704740F233438D
:102440009A42A2F2334202DC524200F029B8FFF76E
:10245000CABE000030B5002904DB4FF00044404202
:1024600064EB0101002B04DB4FF00044524264EBAB
:102470000303994208BF904230BD0000064C074D4F
:1024800006E0E06840F0010394E807009847103444
:10249000AC42F6D3FDF750FE6039000880390008E1
:1024A000202A04DB203A21FA02F00021704721FAA9
:1024B00002F3D040C2F12002914008431946704710
:1024C0000FB4084B10B504A902AA039800F042F912
:1024D000044602A9002000F0E0FC204610BC5DF894
:1024E00014FB00009B2E0008490050EAC12018BFD1
:1024F00004204A0D18BF40F0010040F2FF72B2EB19
:10250000515F08BF40F00200012808BF0520704756
:102510002DE9F0414F1E00EBC7010446D1E900014F
:1025200015461E4637F006020DD02A463346FFF701
:10253000D9FC7F1E04EBC703D3E90023FFF72BFC74
:1025400037F00602F1D1022F25D0042F13D0062F29
:1025500018BFBDE8F0812A463346FFF7C3FCD4E933
:102560000A23FFF718FC2A463346FFF7BBFCD4E9E1
:102570000823FFF710FC2A463346FFF7B3FCD4E9E3
:102580000623FFF708FC2A463346FFF7ABFCD4E9E5
:102590000423FFF700FC2A463346FFF7A3FCD4E9E7
:1025A0000223FFF7F8FB2A463346FFF79BFCD4E9EA
:1025B0000023BDE8F041FFF7EEBB0000024A002017
:1025C0001107FFF7C6BE000001FDFFFF02E008C8CB
:1025D000121F08C1002AFAD170477047002001E09D
:1025E00001C1121F002AFBD1704700000149086099
:1025F00070470000400000202DE9FF5FDDE9022068
:10260000010DDDF838B0024310D10F9801244CA21F
:10261000012808D0002100980F9BC0E90021C0E9E3
:102620000243BDE8FF9F6FEA0B01F4E7A1F2FF311F
:1026300044F6105041430D140F9801280ED0A5EB1D
:102640000B00401C4FF000043E4EDFF8FC90B0F150
:10265000000AA04605DACAF1000717E0CBF1000036
:10266000F0E7074612E0F80707D022463346404617
:102670004946FFF737FC80468946224633461046D6
:102680001946FFF72FFC04460E467F10002FEAD1B3
:10269000DDE90201BAF1000F42464B4602DAFFF7CC
:1026A00021FC01E0FFF790FC04460E460022274B78
:1026B000FFF7D0FE03D84FF0FF30014607E00022BD
:1026C000234B20463146FFF766FBFFF7AAFE102496
:1026D00009E0002C0ADB0A220023FFF753FD019BCF
:1026E00030321A55641E50EA0102F2D1641C019A7C
:1026F000C4F1110314440F9A012A09D0012208439E
:1027000001D15B450FDD4FF0000205F101050DE041
:10271000084303D1A3EB0B056D1E09E000204FF029
:10272000110B0F9088E701DA00226D1E002A83D07A
:1027300000980F99C0E90231C0E9004571E7000037
:1027400030000000000024400000F03F0000F04393
:102750000000E03F2DE9FF4F95B09B4689460646B5
:10276000002512E2252878D10024761CF94A274654
:10277000012105943378203B01FA03F0104202D086
:102780000443761CF6E730782A2811D06FF02F0327
:102790003078A0F13002092A16D8059A44F00204D4
:1027A00002EB820203EB42021044761C0590EFE735
:1027B00059F8042B0592002A03DA504244F40054DD
:1027C000059044F00204761C30782E2816D116F8B5
:1027D000010F44F004042A280DD06FF02F02307846
:1027E000A0F13003092B09D807EB870302EB430361
:1027F000C718761CF3E759F8047B761C30786C28F0
:102800000FD006DC4C2817D068280DD06A2814D1C8
:1028100004E0742810D07A280FD10DE044F400149D
:102820000AE044F4801401E044F4401472788242D7
:1028300002D1761C04F58014761C307866280BD003
:1028400013DC582877D009DC002875D04528F6D04D
:102850004628F4D047281AD19FE118E0632835D0E4
:10286000642879D0652812D197E1702873D008DCEC
:102870006728F1D069286FD06E280DD06F2806D157
:10288000B5E073282CD0752875D0782874D05A46B6
:10289000179990476D1C76E1C4F30250022809D0C5
:1028A00003280DD0D9F8001004280DD00D6009F1CF
:1028B000040968E1D9F80010EA17C1E90052F6E707
:1028C000D9F800100D80F2E70D70F0E719F8041B3D
:1028D0008DF8001000208DF80100EA46012003E089
:1028E00059F804AB4FF0FF3061074FF0000102D4FC
:1028F0000DE008F101018846B9420FDA8045F8DBA6
:102900001AF808100029F4D108E008F101018846FE
:102910008142FADB1AF808100029F6D105985B46C7
:10292000A0EB080721463846179A00F09EFA284483
:1029300000EB080507E04DE02BE10DE01AF8010B74
:102940005A4617999047B8F10108F7D25B462146DD
:102950003846179A14E142E00A220092C4F3025268
:102960004FF0000A022A08D059F804CB032A4FEA94
:10297000EC710AD00DE029E02AE009F1070121F00D
:102980000702F2E802C1914609E00FFA8CFC4FEA17
:10299000EC71042A03D14FFA8CFC4FEAEC71002948
:1029A00007DA0A460021DCF1000C61EB02012D225E
:1029B00002E0220504D52B228DF80420012203E039
:1029C000E20701D02022F7E7904653E00A2102E017
:1029D00010220DE010214FF0000A00910BE01022B0
:1029E0004FF0000A44F004040827009203E0082294
:1029F0004FF0000A0092C4F30252022A05D059F89F
:102A000004CB0021032A08D009E009F1070121F0D5
:102A10000702F2E802C1914605E01FFA8CFC042A85
:102A200001D10CF0FF0C4FF00008220722D57028CE
:102A300027D0009B83F0100353EA0A0309D15CEA14
:102A4000010206D030228DF804208DF80500022204
:102A50009046009B83F0080353EA0A030AD15CEA1C
:102A6000010201D1620705D530228DF804204FF014
:102A700001087F1E582809D037A003900EA80290A5
:102A800013E040228DF804200122E1E737A0F4E7AB
:102A900053466046009AFFF775FB84460398825CB4
:102AA0000298A0F10100029002705CEA0100EFD1EF
:102AB000029806A9A1EB000000F1200A600702D5E8
:102AC00024F4803400E00127574502DDA7EB0A001B
:102AD00000E0002000EB0A01009005984144A0EBC3
:102AE00001000590E00306D45B462146179A05983D
:102AF00000F0BBF90544002706E001A85A46C05D76
:102B0000179990476D1C7F1C4745F6DBE0030CD5F9
:102B10005B462146179A059800F0A7F9054404E0A2
:102B200030205A46179990476D1C0099481E009016
:102B30000029F5DC08E0029802995A460078491C01
:102B40000291179990476D1CBAF10001AAF1010A90
:102B5000F1DC6BE10928010030313233343536378E
:102B600038396162636465660000000030313233D9
:102B70003435363738394142434445460000000079
:102B800000F060F9054406F10106307800287FF472
:102B9000E9AD19B02846BDE8F08F620700D40627DA
:102BA00009F1070222F0070CFCE80223E14603F0DA
:102BB00000485FEA080C02D00FF27C2C0DE05FEABF
:102BC000045C02D50FF2742C07E05FEAC47C02D0EB
:102BD0000FF26C2C01E0AFF2700C4FF0FF3823F0D5
:102BE0000043CDF850C065280CD006DC452809D03C
:102BF00046281DD047283ED13EE0662818D06728D9
:102C000039D139E00021112F01DB112000E0781CBF
:102C1000CDE9000106A90EA8FFF7EEFCDDE90F01E2
:102C20000E9A03910021009207F1010A04914EE0EF
:102C30004FF000400097CDE9011006A90EA8FFF75C
:102C4000DBFCDDE90F0203920E9B11990022DDF8F7
:102C50000CA00093049219B907F1010100EB010ADD
:102C6000B7EB0A0004D4C0F1FF3007F1010A049069
:102C7000AAEB0700019046E0012F00DA01270021AE
:102C8000112F01DD112000E03846CDE9000106A931
:102C90000EA8FFF7B1FCDDE90F010E9A03910021A8
:102CA00004910092BA4621070CD40399514500DAE9
:102CB0008A46BAF1010F05DD009AAAF10101515CC3
:102CC000302908D0B84202DA10F1040F06DA0121E7
:102CD000CDE9011017E0AAF10101E9E7002805DCC0
:102CE000049901440491AAEB000102E0411C514502
:102CF00000DD8A460499A0EB010000F1010001907B
:102D00004FF000400290200704D40198504501DBA9
:102D1000CDF8048000208DF84F0002980DF14F0788
:102D2000B0F1004F25D02B200E9002984FF00208F2
:102D300000280CDA404202902D200E9007E00A2174
:102D40000298FFF709FA3031029007F8011DB8F137
:102D50000001A8F10108F2DC02980028EFD1791EE9
:102D60000E980870307800F0200040F0450007F819
:102D7000020D12A8A0EB070000F1070814980078D4
:102D800000B1012000EB0A01019801EBE071059808
:102D90004144A0EB0100A0F101000590E00306D43E
:102DA0005B462146179A059800F05FF80544149891
:102DB000007820B15A461799904705F10105E003C4
:102DC00023D55B462146179A059800F04EF8054436
:102DD0001BE00498002807DBDDE90301884203DDDE
:102DE0000098405C179901E0179930205A469047A7
:102DF00004986D1C401C04900198401E019004D161
:102E00002E205A46179990476D1CBAF10001AAF17D
:102E1000010ADEDC05E017F8010B5A4617999047C6
:102E20006D1CB8F10001A8F10108F4DC5B462146F5
:102E3000179A0598A4E600002D0000002B00000062
:102E4000200000002DE9F041044600251E461746EB
:102E5000880405D406E039462020B04705F1010575
:102E6000641EF8D52846BDE8F0812DE9F0410446FE
:102E700000251E469046C80301D5302700E02027D4
:102E8000880405D506E041463846B04705F10105FE
:102E9000641EF8D52846BDE8F0810A68531C0B6013
:102EA000107070472DE9F04D16460F46054602009A
:102EB00094B01C4621F0004123F0004014BF4FF0B5
:102EC000010C4FF0000C0CEB470CFE4B0CEB030815
:102ED0004FEA630CE0452DD35FEA060818BF4FF0B8
:102EE000010808EB44089844F74B984522D3F74B68
:102EF00050EA060C02D09F4205D14AB914B0002016
:102F00001946BDE8F08D002A08BF4FF0000C01D033
:102F10004FF0010C0CEB470313F5001F0AD8002EED
:102F200014BF4FF0010C4FF0000C0CEB440313F5F1
:102F3000001F08D914B03246234628463946BDE85A
:102F4000F04DFEF728BFDFF888B34FF0000A002FDE
:102F5000B8BF584523DADF4B9842A8BF4FF0020AAA
:102F60001DDADA4B83421ADCDB4B03EB2053142BC4
:102F700008DDC3F1340C26FA0CF303FA0CFCB4455B
:102F80000DD108E05EB9C3F1140C20FA0CF303FA7A
:102F90000CFC844503D103F00103C3F1020A51EA9A
:102FA000020321D1002C1FDA002F18BFBAF1020F43
:102FB00002D0BAF1010F0BD00220FFF717FB14B0BB
:102FC0000022BDE8F04D13461046C049FEF7FCBF95
:102FD0000220FFF70BFB14B02A463B46BDE8F04D3C
:102FE0000020BA49FEF7F0BF33006DD1584525D116
:102FF00007F1804010F5801001BF002A0020B3497E
:1030000014B008BFBDE8F08DB048884207DC002C42
:10301000A1BF1846214614B0BDE8F08D07E0002C92
:10302000BFBF184684F0004114B0BDE8F08DAB4935
:103030007944D1E9000114B0BDE8F08DDFF88CC20D
:10304000604526D1002C1FDA19B1594513D1DAB9E0
:103050000AE0002A40F0DA829D4A394614B0002086
:1030600062F31E01BDE8F08D0020394614B060F314
:103070001E01BDE8F08D07DA14B03B46BDE8F04D07
:1030800000206146FEF7A0BF14B010463946BDE8E7
:10309000F08D594518DAB4F1804F0DD0A4F10053EA
:1030A000B3F1FF5310D13B1E0EDB14B01046BDE848
:1030B000F04D194600F0E6BB3B4614B01046BDE8A3
:1030C000F04D1946FEF70EBF27F00043A2BBE1B159
:1030D000594538D1002F06DD002CA1BF00205946EC
:1030E00014B0BDE8F08D002F01DD002C1FDB002F98
:1030F00016DA002C14DBBAF1010F4FF0000014BFF8
:103100007349774914B0BDE8F08DBAF1020F18BFCA
:10311000002F0CD0BAF1010F09D1002F07DA0CE013
:10312000002FB8BF002C0EDABAF1010F05D0002035
:1031300014B00146BDE8F08D05E014B000204FF05A
:103140000041BDE8F08D4FF0010C0CEBE7720D92E1
:1031500052EA0A020BD0634A90427DDD624B634A19
:10316000984216DD8A420EDB002C1CDB2CE001208D
:10317000FFF73CFA14B00022BDE8F04D13461046AC
:103180001146FEF721BF5148884202DC002C0ADCC0
:103190001AE0914202DA002C16DA04E04B4B994215
:1031A0001EDD002C10DD0220FFF720FA40F2013274
:1031B00000204FF0E041FFF7CCF8454A14B061F32E
:1031C0001E021146BDE8F08D0220FFF70FFAFFF74F
:1031D000F5F93E4A14B061F31E021146BDE8F08DC8
:1031E000002228463946FEF777FE054688466FF0EE
:1031F0000102FFF7AEF84FF055323D4BFEF76FFE80
:103200002A464346FEF76EFE00223A4BFEF767FE63
:1032100007468B462A46434610461946FEF762FE8D
:103220003A465B46FEF75EFE09910C904FF0C042B5
:10323000314B28464146FEF755FE07468B462F4A3E
:103240002D4B09990C98FEF74DFECDE901102C4A43
:103250002C4B2846414600E019E0FEF743FEDDE92D
:103260000132FEF739FE3A465B4605910890FEF7BB
:1032700092FD002588463A465B462846FEF72CFE1E
:10328000059B089AFEF72BFE024600F076B9002057
:10329000B1F5801F07DA352228461946FFF759F89D
:1032A00005466FF0340000EB2150A0F2FF30019092
:1032B000C1F3130040F07F6141F040510291124987
:1032C000884223E0FFFF1F00FFFF0F000000F03FD8
:1032D0000000F07F0000404301FCFFFF24090000D4
:1032E0000000F0FF0000E0410000F043FFFFEF3F6F
:1032F0005555D53F0000E03F4715F73FFE822B654F
:1033000044DF5DF80BAE543E8E980300D8BF4FF0FB
:10331000000B0EDDFE498142C8BF4FF0010B08DCF7
:1033200001984FF0000B401C01900298A0F580100E
:103330000290F8480299784400EBCB000B91109072
:10334000D0E900232846FEF7C7FD009010980791AA
:10335000D0E9002328460B99FEF71DFD02460B46D7
:103360000020ED49FEF730FE05910B46024608901D
:1033700007990098FEF7B6FD0690E84888460027B2
:103380007844029900680E904FF0005040EA6100C6
:1033900000EB8B4000F5002110980291D0E900234A
:1033A0000E98FEF799FD2A460B9BFEF798FD3A46CC
:1033B0004346FEF797FD05460B9138464146029B72
:1033C0000E9AFEF78FFD079B009AFEF788FD2A46AE
:1033D0000B9BFEF781FD059B089AFEF783FD0B9181
:1033E0001090069A434610461946FEF77BFD0546A7
:1033F0000246CB480B46009106217844FFF788F837
:10340000009B2A460291089010461946FEF76AFD75
:10341000029B089AFEF766FD05460591434638462D
:103420001946069AFEF7B7FC0B9B109AFEF75AFD59
:103430002A46059BFEF7AFFC3A46434605910890A5
:1034400010461946FEF74EFD0022B64B00910C9037
:10345000FEF7A1FC059B089AFEF79DFC0D463A4637
:10346000B04B3846FEF738FD009B0C9AFEF734FD52
:10347000059B089AFEF733FD11913A460C902B46B6
:1034800010464146FEF72EFD079100904346069AEE
:1034900011990C98FEF726FD804603912B463A467B
:1034A0000B991098FEF71EFD4246039BFEF773FC36
:1034B000059180460B46024607990098FEF76BFC83
:1034C00000200F460546079B009AFEF705FD424681
:1034D000059BFEF704FD804609914FF06042924B38
:1034E00028463946FEF7FEFC009102908F4A8E4B2B
:1034F00040460999FEF7F6FC804603918C4A8D4BB5
:1035000028463946FEF7EEFC4246039BFEF743FC95
:10351000894A7A4402EBCB03D3E90023FEF73BFC54
:10352000069003910198FEF7BEFD0746DDE9020310
:103530000591069A0099FEF72EFC804A7A4402EB28
:10354000CB0BDBE90023FEF726FC3A46059BFEF792
:1035500022FC002588463A462846059BFEF7BCFC1F
:10356000DBE90023FEF7B8FC009B029AFEF7B4FCEF
:10357000039B069AFEF7B3FC0246002006900D98C6
:10358000654FAAF10103184301D16D4F0690002049
:103590000B46009030462146FEF7A4FC82468B463F
:1035A000234630461946009AFEF796FC2A464346C3
:1035B000FEF798FC52465B46FEF7EDFB06468A4650
:1035C0002A46434621460098FEF78CFC04460D46E9
:1035D00032465346FEF7DFFB5A4A8B46914226DBC2
:1035E000ABEB020353EA000210D122462B46FEF752
:1035F00073FC80460591544A544B30465146FEF7C1
:10360000CAFB4246059BFEF725FF30D20220FEF79B
:10361000EDFF40F2013200204FF0E041FEF799FE4D
:103620000A46394614B062F31E01BDE8F08D484BDE
:103630002BF000429A421AD3464A0BEB020353EA9C
:10364000000208D122462B46FEF746FC324653467E
:10365000FEF700FF0BD80220FEF7C8FFFEF7AEFF13
:103660000A46394614B062F31E01BDE8F08D2BF016
:1036700000403949394A01EB20514FF0000882429D
:1036800023DA481C4FF4801121FA00F05844C0F3AB
:103690000A51334AA1F2FF317A44324B1268CB40CF
:1036A00020EA0303C0F3130040F4801CC1F11400AE
:1036B0002CFA00F8BBF1000FB8BFC8F10008204693
:1036C0002946FEF709FC04460D4622462B463046A5
:1036D0005146FEF760FB4FF0000B5A46224B58460E
:1036E0000591FEF7FFFB00900791204A204B5846BA
:1036F0000599FEF7F7FB0491029022462B465846A7
:103700000599FEF7E9FB32465346FEF7E8FB31E048
:103710007AB60B00960500000000F03FD4050000CB
:10372000020500000000084009C7EE3FFD033ADC37
:10373000F5015B14E02F3EBEDA030000A003000099
:103740000000F0BF00009040FE822B654715973CBB
:1037500000CC904000346F3F01FCFFFF0000E03FD1
:10376000BC020000FFFF0F00432EE63F396CA80C9F
:10377000615C20BE3F4A404BFEF7B4FB049B029ABB
:10378000FEF709FB06468A46079B009AFEF703FBF5
:1037900004460D46079B009AFEF79EFB32465346B1
:1037A000FEF79DFB064622462B4609911046194618
:1037B000FEF798FB8346024630488A460B460521B1
:1037C0007844FEF7A5FE5A465346FEF78BFB224689
:1037D0002B46FEF784FB82468B463246204629461E
:1037E000099BFEF77FFB3246099BFEF7D4FA059151
:1037F000089000224FF0804350465946FEF76CFB7C
:103800000646009152465B4620462946FEF76AFB73
:103810003246009BFEF7D8FB059B089AFEF75CFB3F
:1038200022462B46FEF758FB0022154BFEF757FBAE
:103830000D46044601EB08510815002810DC4246ED
:1038400020462946FEF785FDFEF74EFE042808BFF8
:10385000FEF7B4FE424620462946FEF77AFD0446AE
:1038600006980B4614B022463946BDE8F04DFEF7E7
:1038700039BB0000EF39FAFE422EE63F6C01000032
:103880000000F03F2DE9F04106460F46FEF778FDB7
:1038900004000D4618BF0120284320F00040C0F16D
:1038A0007F6000F1E040C00F0ED0301C18BF012037
:1038B000384320F00040C0F17F6000F1E040C00FCD
:1038C00004BF0120FEF792FE20462946BDE8F081A4
:1038D000000000000000F03F000000000000F83F82
:1038E00000000000000000000000004003B8E23FBC
:1038F000000000000000000006D0CF43EBFD4C3E6E
:10390000033333333333E33FFFAB6FDBB66DDB3F62
:103910004D268F515555D53F01411DA96074D13FAA
:1039200065DBC9934A86CD3FEF4E454A287ECA3FA4
:103930003E5555555555C53F93BDBE166CC166BF26
:103940002CDE25AF6A56113FF16BD2C541BDBBBE1F
:10395000D0A4BE726937663E00000000000000007F
:10396000803900080000002044000000CC25000839
:10397000C43900084400002044040000DC2500088D
:103980000000000000000000000000000000000037
:103990000000000000000000010203040102030413
:1039A000060708090204060800A24A0400000000F5
:1039B00000000000010203040607080900A000003F
:0439C0000000000003
:0400000508000131BD
:00000001FF
